:1000000009C00EC00DC00CC00BC00AC009C008C09A
:1000100007C006C011241FBECFE9CDBF32D03BC000
:10002000EFCF20E030E049E150E00AC0FA0131971B
:10003000F1F70197D9F72F5F3F4F2C33310519F0B6
:1000400080E197E2F3CF0895CF93DF93C0E0D0E053
:10005000E8DF2196CC33D105D9F7DF91CF91089510
:10006000CF93DF93C0E0D0E0EFDF2196C731D10519
:10007000D9F7DF91CF91089580E188BB089518BA30
:1000800008951F9380E187BB18BA10E118BBDCDF2D
:0A00900018BAE6DFFBCFF894FFCFAB
:040000030000007881
:00000001FF
